{
  "_format": "hh-sol-artifact-1",
  "contractName": "Twitter",
  "sourceName": "contracts/twitter-q2.sol",
  "abi": [
    {
      "inputs": [
        {
          "internalType": "address",
          "name": "_user",
          "type": "address"
        }
      ],
      "name": "followUser",
      "outputs": [],
      "stateMutability": "nonpayable",
      "type": "function"
    },
    {
      "inputs": [
        {
          "internalType": "address",
          "name": "_user",
          "type": "address"
        }
      ],
      "name": "getConversationWithUser",
      "outputs": [
        {
          "components": [
            {
              "internalType": "uint256",
              "name": "messageId",
              "type": "uint256"
            },
            {
              "internalType": "string",
              "name": "content",
              "type": "string"
            },
            {
              "internalType": "address",
              "name": "from",
              "type": "address"
            },
            {
              "internalType": "address",
              "name": "to",
              "type": "address"
            }
          ],
          "internalType": "struct Twitter.Message[]",
          "name": "",
          "type": "tuple[]"
        }
      ],
      "stateMutability": "view",
      "type": "function"
    },
    {
      "inputs": [],
      "name": "getFollowers",
      "outputs": [
        {
          "internalType": "address[]",
          "name": "",
          "type": "address[]"
        }
      ],
      "stateMutability": "view",
      "type": "function"
    },
    {
      "inputs": [],
      "name": "getFollowing",
      "outputs": [
        {
          "internalType": "address[]",
          "name": "",
          "type": "address[]"
        }
      ],
      "stateMutability": "view",
      "type": "function"
    },
    {
      "inputs": [],
      "name": "getTweetFeed",
      "outputs": [
        {
          "components": [
            {
              "internalType": "uint256",
              "name": "tweetId",
              "type": "uint256"
            },
            {
              "internalType": "address",
              "name": "author",
              "type": "address"
            },
            {
              "internalType": "string",
              "name": "content",
              "type": "string"
            },
            {
              "internalType": "uint256",
              "name": "createdAt",
              "type": "uint256"
            }
          ],
          "internalType": "struct Twitter.Tweet[]",
          "name": "",
          "type": "tuple[]"
        }
      ],
      "stateMutability": "view",
      "type": "function"
    },
    {
      "inputs": [],
      "name": "nextMessageId",
      "outputs": [
        {
          "internalType": "uint256",
          "name": "",
          "type": "uint256"
        }
      ],
      "stateMutability": "view",
      "type": "function"
    },
    {
      "inputs": [],
      "name": "nextTweetId",
      "outputs": [
        {
          "internalType": "uint256",
          "name": "",
          "type": "uint256"
        }
      ],
      "stateMutability": "view",
      "type": "function"
    },
    {
      "inputs": [
        {
          "internalType": "string",
          "name": "_content",
          "type": "string"
        }
      ],
      "name": "postTweet",
      "outputs": [],
      "stateMutability": "nonpayable",
      "type": "function"
    },
    {
      "inputs": [
        {
          "internalType": "address",
          "name": "_user",
          "type": "address"
        }
      ],
      "name": "readTweets",
      "outputs": [
        {
          "components": [
            {
              "internalType": "uint256",
              "name": "tweetId",
              "type": "uint256"
            },
            {
              "internalType": "address",
              "name": "author",
              "type": "address"
            },
            {
              "internalType": "string",
              "name": "content",
              "type": "string"
            },
            {
              "internalType": "uint256",
              "name": "createdAt",
              "type": "uint256"
            }
          ],
          "internalType": "struct Twitter.Tweet[]",
          "name": "",
          "type": "tuple[]"
        }
      ],
      "stateMutability": "view",
      "type": "function"
    },
    {
      "inputs": [
        {
          "internalType": "string",
          "name": "_name",
          "type": "string"
        }
      ],
      "name": "registerAccount",
      "outputs": [],
      "stateMutability": "nonpayable",
      "type": "function"
    },
    {
      "inputs": [
        {
          "internalType": "address",
          "name": "_recipient",
          "type": "address"
        },
        {
          "internalType": "string",
          "name": "_content",
          "type": "string"
        }
      ],
      "name": "sendMessage",
      "outputs": [],
      "stateMutability": "nonpayable",
      "type": "function"
    },
    {
      "inputs": [
        {
          "internalType": "uint256",
          "name": "",
          "type": "uint256"
        }
      ],
      "name": "tweets",
      "outputs": [
        {
          "internalType": "uint256",
          "name": "tweetId",
          "type": "uint256"
        },
        {
          "internalType": "address",
          "name": "author",
          "type": "address"
        },
        {
          "internalType": "string",
          "name": "content",
          "type": "string"
        },
        {
          "internalType": "uint256",
          "name": "createdAt",
          "type": "uint256"
        }
      ],
      "stateMutability": "view",
      "type": "function"
    },
    {
      "inputs": [
        {
          "internalType": "address",
          "name": "",
          "type": "address"
        }
      ],
      "name": "users",
      "outputs": [
        {
          "internalType": "address",
          "name": "wallet",
          "type": "address"
        },
        {
          "internalType": "string",
          "name": "name",
          "type": "string"
        }
      ],
      "stateMutability": "view",
      "type": "function"
    }
  ],
  "bytecode": "0x608060405234801561001057600080fd5b50611f6c806100206000396000f3fe608060405234801561001057600080fd5b50600436106100cf5760003560e01c80638076e02b1161008c578063bff6de2011610066578063bff6de2014610215578063de6f24bb14610231578063e8d857b01461024d578063eefbf17e14610280576100cf565b80638076e02b146101aa578063a70806f7146101c8578063a87430ba146101e4576100cf565b80630cbc3dc4146100d45780630d79f561146100f057806323f147021461010e578063495b8c291461012c57806371c85b8d1461014a57806375d92f531461017a575b600080fd5b6100ee60048036038101906100e99190611651565b61029e565b005b6100f86104ca565b604051610105919061178e565b60405180910390f35b61011661059d565b604051610123919061178e565b60405180910390f35b610134610670565b6040516101419190611987565b60405180910390f35b610164600480360381019061015f91906119d5565b61082c565b6040516101719190611987565b60405180910390f35b610194600480360381019061018f91906119d5565b610aa2565b6040516101a19190611b27565b60405180910390f35b6101b2610ccd565b6040516101bf9190611b58565b60405180910390f35b6101e260048036038101906101dd91906119d5565b610cd3565b005b6101fe60048036038101906101f991906119d5565b610e26565b60405161020c929190611bcc565b60405180910390f35b61022f600480360381019061022a9190611651565b610ef2565b005b61024b60048036038101906102469190611bfc565b61101e565b005b61026760048036038101906102629190611c88565b61139d565b6040516102779493929190611cb5565b60405180910390f35b610288611475565b6040516102959190611b58565b60405180910390f35b3360008060003373ffffffffffffffffffffffffffffffffffffffff1673ffffffffffffffffffffffffffffffffffffffff168152602001908152602001600020905060008160010180546102f290611d30565b80601f016020809104026020016040519081016040528092919081815260200182805461031e90611d30565b801561036b5780601f106103405761010080835404028352916020019161036b565b820191906000526020600020905b81548152906001019060200180831161034e57829003601f168201915b5050505050905060008151116103b6576040517f08c379a00000000000000000000000000000000000000000000000000000000081526004016103ad90611dd4565b60405180910390fd5b60006001600060025481526020019081526020016000209050338160010160006101000a81548173ffffffffffffffffffffffffffffffffffffffff021916908373ffffffffffffffffffffffffffffffffffffffff160217905550858582600201919061042592919061147b565b50428160030181905550600254816000018190555060008060003373ffffffffffffffffffffffffffffffffffffffff1673ffffffffffffffffffffffffffffffffffffffff1681526020019081526020016000209050806002016002549080600181540180825580915050600190039060005260206000200160009091909190915055600260008154809291906104bc90611e23565b919050555050505050505050565b606060008060003373ffffffffffffffffffffffffffffffffffffffff1673ffffffffffffffffffffffffffffffffffffffff16815260200190815260200160002090508060040180548060200260200160405190810160405280929190818152602001828054801561059257602002820191906000526020600020905b8160009054906101000a900473ffffffffffffffffffffffffffffffffffffffff1673ffffffffffffffffffffffffffffffffffffffff1681526020019060010190808311610548575b505050505091505090565b606060008060003373ffffffffffffffffffffffffffffffffffffffff1673ffffffffffffffffffffffffffffffffffffffff16815260200190815260200160002090508060030180548060200260200160405190810160405280929190818152602001828054801561066557602002820191906000526020600020905b8160009054906101000a900473ffffffffffffffffffffffffffffffffffffffff1673ffffffffffffffffffffffffffffffffffffffff168152602001906001019080831161061b575b505050505091505090565b6060600060025467ffffffffffffffff8111156106905761068f611e6c565b5b6040519080825280602002602001820160405280156106c957816020015b6106b6611501565b8152602001906001900390816106ae5790505b50905060005b6002548110156108245760016000828152602001908152602001600020604051806080016040529081600082015481526020016001820160009054906101000a900473ffffffffffffffffffffffffffffffffffffffff1673ffffffffffffffffffffffffffffffffffffffff1673ffffffffffffffffffffffffffffffffffffffff16815260200160028201805461076790611d30565b80601f016020809104026020016040519081016040528092919081815260200182805461079390611d30565b80156107e05780601f106107b5576101008083540402835291602001916107e0565b820191906000526020600020905b8154815290600101906020018083116107c357829003601f168201915b5050505050815260200160038201548152505082828151811061080657610805611e9b565b5b6020026020010181905250808061081c90611e23565b9150506106cf565b508091505090565b606060008060008473ffffffffffffffffffffffffffffffffffffffff1673ffffffffffffffffffffffffffffffffffffffff16815260200190815260200160002090506000816002018054806020026020016040519081016040528092919081815260200182805480156108c057602002820191906000526020600020905b8154815260200190600101908083116108ac575b5050505050905060008151905060008167ffffffffffffffff8111156108e9576108e8611e6c565b5b60405190808252806020026020018201604052801561092257816020015b61090f611501565b8152602001906001900390816109075790505b50905060005b82811015610a95576001600085838151811061094757610946611e9b565b5b60200260200101518152602001908152602001600020604051806080016040529081600082015481526020016001820160009054906101000a900473ffffffffffffffffffffffffffffffffffffffff1673ffffffffffffffffffffffffffffffffffffffff1673ffffffffffffffffffffffffffffffffffffffff1681526020016002820180546109d890611d30565b80601f0160208091040260200160405190810160405280929190818152602001828054610a0490611d30565b8015610a515780601f10610a2657610100808354040283529160200191610a51565b820191906000526020600020905b815481529060010190602001808311610a3457829003601f168201915b50505050508152602001600382015481525050828281518110610a7757610a76611e9b565b5b60200260200101819052508080610a8d90611e23565b915050610928565b5080945050505050919050565b606060008060003373ffffffffffffffffffffffffffffffffffffffff1673ffffffffffffffffffffffffffffffffffffffff16815260200190815260200160002090508060050160008473ffffffffffffffffffffffffffffffffffffffff1673ffffffffffffffffffffffffffffffffffffffff168152602001908152602001600020805480602002602001604051908101604052809291908181526020016000905b82821015610cc1578382906000526020600020906004020160405180608001604052908160008201548152602001600182018054610b8490611d30565b80601f0160208091040260200160405190810160405280929190818152602001828054610bb090611d30565b8015610bfd5780601f10610bd257610100808354040283529160200191610bfd565b820191906000526020600020905b815481529060010190602001808311610be057829003601f168201915b505050505081526020016002820160009054906101000a900473ffffffffffffffffffffffffffffffffffffffff1673ffffffffffffffffffffffffffffffffffffffff1673ffffffffffffffffffffffffffffffffffffffff1681526020016003820160009054906101000a900473ffffffffffffffffffffffffffffffffffffffff1673ffffffffffffffffffffffffffffffffffffffff1673ffffffffffffffffffffffffffffffffffffffff168152505081526020019060010190610b47565b50505050915050919050565b60025481565b60008060003373ffffffffffffffffffffffffffffffffffffffff1673ffffffffffffffffffffffffffffffffffffffff168152602001908152602001600020905080600301829080600181540180825580915050600190039060005260206000200160009091909190916101000a81548173ffffffffffffffffffffffffffffffffffffffff021916908373ffffffffffffffffffffffffffffffffffffffff16021790555060008060008473ffffffffffffffffffffffffffffffffffffffff1673ffffffffffffffffffffffffffffffffffffffff168152602001908152602001600020905080600401339080600181540180825580915050600190039060005260206000200160009091909190916101000a81548173ffffffffffffffffffffffffffffffffffffffff021916908373ffffffffffffffffffffffffffffffffffffffff160217905550505050565b60006020528060005260406000206000915090508060000160009054906101000a900473ffffffffffffffffffffffffffffffffffffffff1690806001018054610e6f90611d30565b80601f0160208091040260200160405190810160405280929190818152602001828054610e9b90611d30565b8015610ee85780601f10610ebd57610100808354040283529160200191610ee8565b820191906000526020600020905b815481529060010190602001808311610ecb57829003601f168201915b5050505050905082565b600082828080601f016020809104026020016040519081016040528093929190818152602001838380828437600081840152601f19601f8201169050808301925050505050505090506000815111610f7f576040517f08c379a0000000000000000000000000000000000000000000000000000000008152600401610f7690611f16565b60405180910390fd5b60008060003373ffffffffffffffffffffffffffffffffffffffff1673ffffffffffffffffffffffffffffffffffffffff16815260200190815260200160002090508383826001019190610fd492919061147b565b50338160000160006101000a81548173ffffffffffffffffffffffffffffffffffffffff021916908373ffffffffffffffffffffffffffffffffffffffff16021790555050505050565b60008060003373ffffffffffffffffffffffffffffffffffffffff1673ffffffffffffffffffffffffffffffffffffffff168152602001908152602001600020905060008060008673ffffffffffffffffffffffffffffffffffffffff1673ffffffffffffffffffffffffffffffffffffffff168152602001908152602001600020905060006040518060800160405280600354815260200186868080601f016020809104026020016040519081016040528093929190818152602001838380828437600081840152601f19601f8201169050808301925050505050505081526020013373ffffffffffffffffffffffffffffffffffffffff1681526020018773ffffffffffffffffffffffffffffffffffffffff1681525090508260050160008773ffffffffffffffffffffffffffffffffffffffff1673ffffffffffffffffffffffffffffffffffffffff1681526020019081526020016000208190806001815401808255809150506001900390600052602060002090600402016000909190919091506000820151816000015560208201518160010190805190602001906111ca92919061153f565b5060408201518160020160006101000a81548173ffffffffffffffffffffffffffffffffffffffff021916908373ffffffffffffffffffffffffffffffffffffffff16021790555060608201518160030160006101000a81548173ffffffffffffffffffffffffffffffffffffffff021916908373ffffffffffffffffffffffffffffffffffffffff16021790555050508160050160003373ffffffffffffffffffffffffffffffffffffffff1673ffffffffffffffffffffffffffffffffffffffff1681526020019081526020016000208190806001815401808255809150506001900390600052602060002090600402016000909190919091506000820151816000015560208201518160010190805190602001906112ec92919061153f565b5060408201518160020160006101000a81548173ffffffffffffffffffffffffffffffffffffffff021916908373ffffffffffffffffffffffffffffffffffffffff16021790555060608201518160030160006101000a81548173ffffffffffffffffffffffffffffffffffffffff021916908373ffffffffffffffffffffffffffffffffffffffff16021790555050506003600081548092919061139090611e23565b9190505550505050505050565b60016020528060005260406000206000915090508060000154908060010160009054906101000a900473ffffffffffffffffffffffffffffffffffffffff16908060020180546113ec90611d30565b80601f016020809104026020016040519081016040528092919081815260200182805461141890611d30565b80156114655780601f1061143a57610100808354040283529160200191611465565b820191906000526020600020905b81548152906001019060200180831161144857829003601f168201915b5050505050908060030154905084565b60035481565b82805461148790611d30565b90600052602060002090601f0160209004810192826114a957600085556114f0565b82601f106114c257803560ff19168380011785556114f0565b828001600101855582156114f0579182015b828111156114ef5782358255916020019190600101906114d4565b5b5090506114fd91906115c5565b5090565b604051806080016040528060008152602001600073ffffffffffffffffffffffffffffffffffffffff16815260200160608152602001600081525090565b82805461154b90611d30565b90600052602060002090601f01602090048101928261156d57600085556115b4565b82601f1061158657805160ff19168380011785556115b4565b828001600101855582156115b4579182015b828111156115b3578251825591602001919060010190611598565b5b5090506115c191906115c5565b5090565b5b808211156115de5760008160009055506001016115c6565b5090565b600080fd5b600080fd5b600080fd5b600080fd5b600080fd5b60008083601f840112611611576116106115ec565b5b8235905067ffffffffffffffff81111561162e5761162d6115f1565b5b60208301915083600182028301111561164a576116496115f6565b5b9250929050565b60008060208385031215611668576116676115e2565b5b600083013567ffffffffffffffff811115611686576116856115e7565b5b611692858286016115fb565b92509250509250929050565b600081519050919050565b600082825260208201905092915050565b6000819050602082019050919050565b600073ffffffffffffffffffffffffffffffffffffffff82169050919050565b60006116f5826116ca565b9050919050565b611705816116ea565b82525050565b600061171783836116fc565b60208301905092915050565b6000602082019050919050565b600061173b8261169e565b61174581856116a9565b9350611750836116ba565b8060005b83811015611781578151611768888261170b565b975061177383611723565b925050600181019050611754565b5085935050505092915050565b600060208201905081810360008301526117a88184611730565b905092915050565b600081519050919050565b600082825260208201905092915050565b6000819050602082019050919050565b6000819050919050565b6117ef816117dc565b82525050565b600081519050919050565b600082825260208201905092915050565b60005b8381101561182f578082015181840152602081019050611814565b8381111561183e576000848401525b50505050565b6000601f19601f8301169050919050565b6000611860826117f5565b61186a8185611800565b935061187a818560208601611811565b61188381611844565b840191505092915050565b60006080830160008301516118a660008601826117e6565b5060208301516118b960208601826116fc565b50604083015184820360408601526118d18282611855565b91505060608301516118e660608601826117e6565b508091505092915050565b60006118fd838361188e565b905092915050565b6000602082019050919050565b600061191d826117b0565b61192781856117bb565b935083602082028501611939856117cc565b8060005b85811015611975578484038952815161195685826118f1565b945061196183611905565b925060208a0199505060018101905061193d565b50829750879550505050505092915050565b600060208201905081810360008301526119a18184611912565b905092915050565b6119b2816116ea565b81146119bd57600080fd5b50565b6000813590506119cf816119a9565b92915050565b6000602082840312156119eb576119ea6115e2565b5b60006119f9848285016119c0565b91505092915050565b600081519050919050565b600082825260208201905092915050565b6000819050602082019050919050565b6000608083016000830151611a4660008601826117e6565b5060208301518482036020860152611a5e8282611855565b9150506040830151611a7360408601826116fc565b506060830151611a8660608601826116fc565b508091505092915050565b6000611a9d8383611a2e565b905092915050565b6000602082019050919050565b6000611abd82611a02565b611ac78185611a0d565b935083602082028501611ad985611a1e565b8060005b85811015611b155784840389528151611af68582611a91565b9450611b0183611aa5565b925060208a01995050600181019050611add565b50829750879550505050505092915050565b60006020820190508181036000830152611b418184611ab2565b905092915050565b611b52816117dc565b82525050565b6000602082019050611b6d6000830184611b49565b92915050565b611b7c816116ea565b82525050565b600082825260208201905092915050565b6000611b9e826117f5565b611ba88185611b82565b9350611bb8818560208601611811565b611bc181611844565b840191505092915050565b6000604082019050611be16000830185611b73565b8181036020830152611bf38184611b93565b90509392505050565b600080600060408486031215611c1557611c146115e2565b5b6000611c23868287016119c0565b935050602084013567ffffffffffffffff811115611c4457611c436115e7565b5b611c50868287016115fb565b92509250509250925092565b611c65816117dc565b8114611c7057600080fd5b50565b600081359050611c8281611c5c565b92915050565b600060208284031215611c9e57611c9d6115e2565b5b6000611cac84828501611c73565b91505092915050565b6000608082019050611cca6000830187611b49565b611cd76020830186611b73565b8181036040830152611ce98185611b93565b9050611cf86060830184611b49565b95945050505050565b7f4e487b7100000000000000000000000000000000000000000000000000000000600052602260045260246000fd5b60006002820490506001821680611d4857607f821691505b60208210811415611d5c57611d5b611d01565b5b50919050565b7f546869732077616c6c657420646f6573206e6f742062656c6f6e6720746f206160008201527f6e79206163636f756e742e000000000000000000000000000000000000000000602082015250565b6000611dbe602b83611b82565b9150611dc982611d62565b604082019050919050565b60006020820190508181036000830152611ded81611db1565b9050919050565b7f4e487b7100000000000000000000000000000000000000000000000000000000600052601160045260246000fd5b6000611e2e826117dc565b91507fffffffffffffffffffffffffffffffffffffffffffffffffffffffffffffffff821415611e6157611e60611df4565b5b600182019050919050565b7f4e487b7100000000000000000000000000000000000000000000000000000000600052604160045260246000fd5b7f4e487b7100000000000000000000000000000000000000000000000000000000600052603260045260246000fd5b7f4e616d652063616e6e6f7420626520616e20656d70747920737472696e670000600082015250565b6000611f00601e83611b82565b9150611f0b82611eca565b602082019050919050565b60006020820190508181036000830152611f2f81611ef3565b905091905056fea264697066735822122037db0479059a0c8b1904ed1c3c8bbb2f1440b0d64b51faf166092d8540f37a3764736f6c63430008090033",
  "linkReferences": {},
  "deployedLinkReferences": {}
}